:020000021000EC
:10C0000000800020FD6F020045700200816902007F
:10C010000000000000000000000000000000000020
:10C020000000000000000000000000004970020055
:10C0300000000000000000004B7002004D70020084
:10C040004F7002004F700200513402004F70020026
:10C050004F70020000000000753F02004F700200A8
:10C060004F7002004F700200813402004F700200D6
:10C070004F7002004F7002004F7002004F700200BC
:10C080004F700200593302004F7002004F700200DF
:10C090004F70020089400200956E02004F7002004E
:10C0A0004F7002004F70020000000000000000000E
:10C0B0000000000000000000000000000000000080
:10C0C00010B5064C2378002B07D1054B002B02D06E
:10C0D000044800E000BF0123237010BD8428002025
:10C0E00000000000F898020008B5084B002B03D0B0
:10C0F0000748084900E000BF07480368002B00D14B
:10C1000008BD064B002BFBD09847F9E70000000064
:10C11000F8980200882800208428002000000000F1
:10C12000164B002B00D1144B9D46402292029A1AC6
:10C13000924600218B460F461348144A121A0BF000
:10C140007CF90F4B002B00D098470E4B002B00D0F2
:10C1500098470020002104000D000D48002802D05F
:10C160000C480BF0DAF80BF0F7F82000290003F088
:10C1700095FF0BF0DBF8C0460000080000800020AF
:10C18000000000000000000084280020E8360020A5
:10C190001B73020000000000F0B55F4656464D4696
:10C1A0004446F0B4E54CA5440B6804930D7911AAFC
:10C1B000E34B12CB12C2E34A0023D47B1DA95C548B
:10C1C0000133013A102BF8D1002D01D001F049FFC5
:10C1D000049B1B689B46002B01D001F042FF061C0C
:10C1E000D94B1B68DB0700D55BE1D84BD84A1A60F6
:10C1F000049A5A60C6ABCAA900225A7001338B4216
:10C20000FAD1C6AC002398460027638201239946E1
:10C210002370D048011C1031CF4B0AAA94466344C6
:10C220001A1C09F0D7FFA37B1B02627B1343C74D87
:10C2300022782A726B83281C0930C74B0AAA9446BD
:10C240006344191C10220BF0DBF82B1CB033EB619C
:10C2500002232B846B8422334A46EA544346EB8400
:10C2600018222823EA5401334A46EA544346EB6233
:10C270003033EF540133EF540133EF5443466B63D3
:10C280003833EF542B1C3933403500221A700133F8
:10C29000AB42FAD1AD4A00235364B04911649364B0
:10C2A0004C215354131C4D33543200211970013367
:10C2B0009342FAD1A54B00229A65A94A5A65C1ABAF
:10C2C000C5A900225A7001338B42FAD1C1AC0023B8
:10C2D000984600276382012399462370A148011CD8
:10C2E0001031A14B0AAA944663441A1C09F072FF4C
:10C2F000A37B1B02627B1343944D21785C22A954DB
:10C300001232AB52281C5D30974B0AAA9446634404
:10C31000191C10220BF074F82B1CB2332B6714235A
:10C320007422AB520232AB5264334A46EA540233AF
:10C330004246EA5204220233EA5401334A46EA549E
:10C3400003334246EA500433EF540133EF540133D0
:10C35000EF540233EA500433EF542B1C8D339435E1
:10C3600000221A700133AB42FAD1784A0023982197
:10C3700053507A48043950500831535004315354C3
:10C38000131CA133A8320021197001339342FAD152
:10C390006E490023AC228B507148043A8850083211
:10C3A0008B5401328B540B1CB233C63100221A70ED
:10C3B00001338B42FAD16D4B1B78002B6ED1634B4E
:10C3C000FF32B0215A5401315A541A1C08322E92AD
:10C3D0005C332F93BCABC0A900225A7001338B424F
:10C3E000FAD1BCAD00276F82012398462B706048BC
:10C3F000011C10315F4B0AAA944663441A1C09F0D1
:10C40000E9FEAB7B1B026A7B134338AC2A782270AF
:10C410006382B9200AAB9C466044564B6344191CA6
:10C4200010220AF0EDFF022323752EABA361A78330
:10C43000464C606807F06EFB03681B6838A9984794
:10C440004D4A4E4B1A60494B42461A70606807F0DD
:10C4500061FB051C142003F0EDFC041C07600023A5
:10C460000371431D011C0C3100221A7001338B42F1
:10C47000FAD100232361139301331493201C334B0F
:10C4800008C013A908320AF0BBFF3D4BE360AB695B
:10C49000002B01D1AC6101E02361AC6101222A4B88
:10C4A0001A60049807F042FB041C0022B7AB1A7113
:10C4B00034490AAA9446614400225A7101338B42DE
:10C4C000FAD1142003F0B6FC2F4BB793B7AB021C84
:10C4D000A2CBA2C22D4BC36000230361636E002B6D
:10C4E00001D1606601E003616066049807F01EFBFD
:10C4F000051C142003F09EFC041C00230360037140
:10C50000431D011C0C3100221A7001338B42FAD1F9
:10C51000002323611E4A15921693201C40C015A9C2
:10C5200008220AF06DFF1B4BE3602B1C94335B6801
:10C53000002B31D194356C6031E0C04604FBFFFF25
:10C54000A08C0200F48C02009C290020D02800203E
:10C55000089302000C930200F1020000A15E0200A9
:10C56000B15E0200EC920200DD020000903000207B
:10C57000DC920200C9020000E925020080300020A0
:10C58000155F0200BB02000091250200915E0200CF
:10C590005D260200E55F0200236194356C6004981B
:10C5A00007F0C4FA051C142003F044FC041C00230B
:10C5B00003600371431D011C0C3100221A7001330A
:10C5C0008B42FAD1002323611D4A17921893201C35
:10C5D00040C017A908220AF013FF1A4BE3602B1C76
:10C5E000A0335B68002B02D1A0356C6002E02361B0
:10C5F000A0356C60049807F08DFA051C142003F038
:10C6000019FC041C002303600371431D011C0C3141
:10C6100000221A7001338B42FAD1002323610A4AA7
:10C6200019921A93201C40C019A908220AF0E8FEAA
:10C63000064BE360AB69002B0AD1AC610AE0C0464F
:10C6400035260200B15F0200C52B02007D5F0200AB
:10C650002361AC61301C363006F000FA002803D0AC
:10C66000002100220AF072F980235B051A6E5B6ECE
:10C6700021A8F14908310AF08BFCF04B1B785BB222
:10C68000002B56D1EE4B1B68002B01D001F0A1FC12
:10C69000142003F0CFFB0123037043700023837049
:10C6A0003222426003810233438104338381E54BAC
:10C6B0000361E34B18600025002801D001F08FFCD6
:10C6C000143003F0B7FB0123037043700023837021
:10C6D0003222426003810233438104338381D94B88
:10C6E0000361D74B18600224002812D1143003F0E4
:10C6F000A1FB012303704370002383703222426048
:10C7000003810233438104338381CE4B0361CC4BDD
:10C710001860CB4B1B689B8900932B230193CA4B5A
:10C720000293CA4B0393C548C9492A1C231C0AF02B
:10C730002FFC049B38930022E9AB1A70EDA900226C
:10C740005A7001338B42FAD138ACE9AB1B782371B4
:10C75000C04BE38205270125BD200AAB9C466044FF
:10C76000BD49614410320AF04BFEBC4BA361A78364
:10C77000E7832023E5540022628402210433E1543C
:10C780000133E554A26200232A31002060540131B4
:10C7900063540131635422633432A354ED230AAA53
:10C7A0009446634447A900221A7001338B42FAD1A0
:10C7B00038AB4892AA494791499248215A540AAB4A
:10C7C0000233FF334CA900221A7001338B42FAD195
:10C7D00000234D93A34A4C92E4AA1370131CE8A9BA
:10C7E00000225A7001338B42FAD138ACE4AB1A788C
:10C7F0005823E2549C4A1233E25201251220FF30A2
:10C800000AAB9C4660449949614410220AF0F8FD45
:10C81000974BE36609237022A3520232A3526B3373
:10C82000E55400220233E25202210233E154013383
:10C83000E554E26700237E310020605401316354E7
:10C8400001316354023162508832A3544223FF33D2
:10C850000AAA944663445CA900221A7001338B42F1
:10C86000FAD138AB94215A507D48043958500831D8
:10C870005A5004315A545623FF330AAA944663444B
:10C8800061A900221A7001338B42FAD10023A83229
:10C890000AA9B82009188B507249043A0AA8B8248A
:10C8A00000198150DFAA1370131CE3A900225A70EB
:10C8B00001338B42FAD1DFAD6E4B99466B8221ABCF
:10C8C0009846181C0AF0C6FE87B238AC2A78AC230A
:10C8D000E25412334A46E25201256620FF300AAB89
:10C8E0009C4660446449614410220AF089FDC023DB
:10C8F0004246E2500433E7520233E7520233E55432
:10C9000000220233E25202210233E1540133E554A2
:10C910000333E2500023D2310020605401316354CC
:10C920000131635402316250DC32A3549623FF3349
:10C930000AAA9446634471A900221A7001338B42FB
:10C94000FAD138ABE8215A504548043958500831DB
:10C950005A5004315A54AA23FF330AAA9446634416
:10C9600076A900221A7001338B42FAD10023FC32DF
:10C970000AA9B82009188B503A49043A0AA8B824E1
:10C9800000198150DAAA1370131CDEA900225A7014
:10C9900001338B42FAD138ACDAAB1A7880235B00D2
:10C9A000E254364A1233E2520125BA20FF300AAB74
:10C9B0009C4660443249614410220AF021FD314A0C
:10C9C0008A235B00E250113BFF3B8C225200A352B2
:10C9D0000232A3521933FF33E55400220233E252EC
:10C9E00002210233E1542223FF33E5540333E250A2
:10C9F00000232731FF31002060542A21FF31635486
:10CA000001316354023162503132FF32A354EA23C0
:10CA1000FF330AAA9446634486A900221A700133A0
:10CA20008B42FAD138AB9E2149005A500C48043948
:10CA30005850083128E0C046A08C0200A0280020F1
:10CA4000042F0020264E00006EA033015C1ECB0A8E
:10CA5000448D0200292A00007D030000588D020049
:10CA6000A15E0200B15E0200242A000069030000FA
:10CA7000608D0200252A000055030000272A0000CF
:10CA8000410300006C8D02005A5004315A54FE23B9
:10CA9000FF330AAA944663448BA900221A7001331B
:10CAA0008B42FAD100235132FF320AA9B82009186B
:10CAB0008B50F049043A0AA8B82400198150D5AA2D
:10CAC0001370131CD9A900225A7001338B42FAD17A
:10CAD000D5ADE94B99466B82E84B9846181C0AF095
:10CAE000B9FD87B238AC2A78AA235B00E25412332E
:10CAF0004A46E2520125E2480AAB9C466044E149BD
:10CB0000614410220AF07CFCB4235B004246E250F0
:10CB10000433E7520233E7520233E5540022023372
:10CB2000E25202210233E1547623FF33E55403330A
:10CB3000E25000237B31FF31002060547E21FF3121
:10CB4000635401316354023162508532FF32A35481
:10CB5000CD4B0AAA944663449BA900221A70013364
:10CB60008B42FAD138ABC82149005A50C748043922
:10CB7000585008315A5004315A54C54B0AAA9446A9
:10CB80006344A0A900221A7001338B42FAD100231A
:10CB9000A532FF320AA9B82009188B50B549043ACA
:10CBA0000AA8B82400198150D0AA1370131CD4A964
:10CBB00000225A7001338B42FAD138ACD0AB1A78CC
:10CBC000D4235B00E254B34A1233E2520125B24847
:10CBD0000AAB9C466044B149614410220AF010FC43
:10CBE0000023DE225200A3500022E02149006352BC
:10CBF0000231635202316554023163520220023124
:10CC00006054CA21FF3165540331635004316254CA
:10CC1000D221FF3162540131625402316350D93361
:10CC2000FF33E2549E4B0AAA94466344B0A9002203
:10CC30001A7001338B42FAD138ABF22149005A50B5
:10CC400092480439585008315A5004315A54954B7F
:10CC50000AAA94466344B5A900221A7001338B4294
:10CC6000FAD1FC235B000AA9B8200918CA50814AEE
:10CC7000043B0AA90918CA508B4B1B78002B33D1EF
:10CC800039AB26934EAB279363AB289378AB2993AC
:10CC90008DAB2A93A2AB2B930022CBAB1A70CFA9FA
:10CCA00000225A7001338B42FAD12EACCBAB1B78E9
:10CCB00023707E4B638291200AAB9C4660447C4982
:10CCC000614410320AF09CFB0623237526ABA36156
:10CCD0000023A383049806F01DFF03681B682EA998
:10CCE0009847714B01221A705C2003F0A3F8041CD2
:10CCF000E6235B00F35C049A026003710022F3AB4D
:10CD00001A70F7A900225A7001338B42FAD1F3ABA3
:10CD1000684A5A82251C08351A7822725B8A638316
:10CD20000126201C093064490AAB9C46614410224C
:10CD30000AF066FB231DE36126846684002300223B
:10CD400024216354E3841220043160540131012012
:10CD50006054E362073100206054013162540131B4
:10CD600062546363231C34331A710533211C403130
:10CD700000221A7001338B42FAD100236364434AC4
:10CD80002264A364221C48321371231C4D33211CDE
:10CD9000543100221A7001338B42FAD10023A3656B
:10CDA000344A62652695EEAA1370131CF2A900227C
:10CDB0005A7001338B42FAD12EADEEAB1B782B703B
:10CDC0003E4B6B8291200AAB9C4660443C496144D7
:10CDD00010320AF015FB01232B7526ABAB6100273F
:10CDE000AF83206806F096FE03681B682EA998475B
:10CDF000344B1C60D920800003F01CF8061C122361
:10CE00000AAA9446634400221A700F9796235B0087
:10CE100010931A3BFF3B634400221A70049B03608B
:10CE2000FFABAC33FFA9BC3100225A7001338B42F7
:10CE3000FAD1FFACAC340027002567820123984665
:10CE400023702148011C1031FFAAAD3209F0C2F94C
:10CE5000A37B1B02627B13436382331D05932378FC
:10CE60003371638AF382701DFFA9AD3110220AF07D
:10CE7000C7FA2BE0B15E0200262A0000A02800209D
:10CE80000D0200002D0300003D020000A15E020023
:10CE900051020000282A000061020000190300006E
:10CEA00091020000A5020000C82800200A18000016
:10CEB00005030000192A0000A50300000F18000058
:10CEC0009103000098290020B08C02000FABB361E1
:10CED0000823B383F3831833F55477841222043381
:10CEE000F25401334246F254B7620733F55401332A
:10CEF000F5540133F5543763331C30331D7105335A
:10CF0000311C3C3100221A7001338B42FAD10023CC
:10CF10003364F04AF2637364321C44321371331C7D
:10CF20004933311C503100221A7001338B42FAD13F
:10CF300000237365E84B3365FFAB9833FFA9A83135
:10CF400000225A7001338B42FAD1FFAC983400278B
:10CF500000256782012398462370E048011C1031A8
:10CF6000FFAA993209F036F9A37B1B02627B1343B7
:10CF7000638258229146B1442178B1544A46538283
:10CF8000301C5930FFA9993110220AF039FA1323C5
:10CF90000AAA94466344F3664B4642461A835A8370
:10CFA0001D77DF83331C783312221A70012201337C
:10CFB0001A70F76707331D7001331D7001331D7040
:10CFC0008423F750331C84331D710533311C903199
:10CFD00000221A7001338B42FAD1331C84331A6158
:10CFE000BC49D9609823F250331C98331A71053329
:10CFF000311CA43100221A7001338B42FAD1331C48
:10D0000098331A61B44ADA60FFAB8433FFA99431D4
:10D0100000225A7001338B42FAD1FFAC84340027CE
:10D0200000256782012398462370AD48011C10310A
:10D03000FFAA853209F0CEF8A37B1B02627B134363
:10D040006382AC229246B2442178B1545246538254
:10D05000301CAD30FFA9853110220AF0D1F912231E
:10D060000AAA9446634452465361012253464146FC
:10D07000198359831A77DF83331CCC331A21197033
:10D0800001331A7053465F62331CD4331D70013371
:10D090001D7001331D70D823F750331CD8331D7118
:10D0A0000533311CE43100221A7001338B42FAD16E
:10D0B000331CD8331A618749D960EC23F250331CF2
:10D0C000EC331A710533311CF83100221A70013328
:10D0D0008B42FAD1331CEC331A617F4ADA60FFAB22
:10D0E0007033FFA9803100225A7001338B42FAD18C
:10D0F000FFAC703400270025678201239846237017
:10D100007848011C1031FFAA713209F063F8A37B43
:10D110001B02627B13436382721CFF3206922178EA
:10D1200080225200B154B4186382B01CFF30FFA9B2
:10D130007131F03A0AF064F90FAB63610423238381
:10D1400063832577E783331C2133FF3302221A7070
:10D15000013342461A70676207331D7001331D7038
:10D1600001331D7096235B00F750331C2D33FF33C2
:10D170001D710533311C3931FF3100221A70013322
:10D180008B42FAD1331C2D33FF331A615149D960D8
:10D19000A0235B00F250331C4133FF331A71053377
:10D1A000311C4D31FF3100221A7001338B42FAD10C
:10D1B000331C4133FF331A61474ADA60FFAB5C33FB
:10D1C000FFA96C3100225A7001338B42FAD1FFACB7
:10D1D0005C3400270025678201239846237042486B
:10D1E000011C1031FFAA5D3208F0F4FFA37B1B0283
:10D1F000627B13436382AA2252009446B44462467F
:10D2000007922178AA225200B15464466382301CEE
:10D210005630FF30FFA95D31453AFF3A0AF0F0F889
:10D2200010AB636104232383638343462377E7833F
:10D23000331C7533FF330A221A70013342461A70C9
:10D24000676207331D7001331D7001331D70C023E9
:10D250005B00F750331C8133FF331D710533311CE4
:10D260008D31FF3100221A7001338B42FAD1331C09
:10D270008133FF331A611749D960CA235B00F2502A
:10D28000331C9533FF331A710533311CA131FF3143
:10D2900000221A7001338B42FAD1331C9533FF33CD
:10D2A0001A610D4ADA60FFAB4833FFA958310022FA
:10D2B0005A7001338B42FAD1FFAC48340027002565
:10D2C00067820123984623700848011C1031FFAA89
:10D2D00049320DE0A15E0200B15E02007C8D0200C9
:10D2E000C48D02009C8D0200248D0200E48C02009B
:10D2F00008F070FFA37B1B02627B13436382D4227E
:10D3000052009446B444624608922178D4225200D6
:10D31000B15464466382301CAA30FF30FFA9493102
:10D32000993AFF3A0AF06CF811AB63610823238342
:10D33000638343462377E783331CC933FF330A22D1
:10D340001A70013342461A70676207331D70013349
:10D350001D7001331D70EA235B00F750331CD53379
:10D36000FF331D710533311CE131FF3100221A708A
:10D3700001338B42FAD1331CD533FF331A61F249A2
:10D38000D960F4235B00F250331CE933FF331A7188
:10D390000533311CF531FF3100221A7001338B4205
:10D3A000FAD1331CE933FF331A61E84ADA60FFAB84
:10D3B0003433FFA9443100225A7001338B42FAD131
:10D3C000FFAC343400250027658201239846237082
:10D3D000DF48011C1031FFAA353208F0FBFEA37BA9
:10D3E0001B02627B13436382FE2252009446B444C4
:10D3F000624609922178FE225200B154644663824B
:10D40000301CFE30FF30FFA93531ED3AFF3A09F00C
:10D41000F7FF656106232383638343462377E58310
:10D4200087239B00F31808221A70CA4BF318424650
:10D430001A70656289239B00F3181F70C64BF3189E
:10D440001F70C64BF3181F708A239B00F550F3180A
:10D450001F71C34BF3188D229200B11800221A706D
:10D4600001338B42FAD18A239B00F3181A61B64923
:10D47000D9608F239B00F250F3181A71B94BF3183F
:10D4800092229200B11800221A7001338B42FAD115
:10D490008F239B00F3181A61AC4ADA60FFAB20338C
:10D4A000FFA9303100225A7001338B42FAD1FFAC10
:10D4B0002034002500276582012398462370AA485E
:10D4C000011C1031A94B0AAA944663441A1C08F0A7
:10D4D00081FEA37B1B02627B134363829422920032
:10D4E0009446B44462460A92217894229200B15440
:10D4F000644663829E4BF0189C4B0AAA9446634490
:10D50000191C102209F07CFF65611023238310236E
:10D51000638343462377E5839C239B00F3181A22F9
:10D520001A70944BF31842461A7065629E239B0052
:10D53000F3181F70904BF3181F70904BF3181F7067
:10D540009F239B00F550F3181F718D4BF318A222F7
:10D550009200B11800221A7001338B42FAD19F2336
:10D560009B00F3181A617849D960A4239B00F250FC
:10D57000F3181A71834BF318A7229200B1180022F6
:10D580001A7001338B42FAD1A4239B00F3181A615D
:10D590006E4ADA60FFAB0C33FFA91C3100225A70CF
:10D5A00001338B42FAD1FFAC0C3400250027658291
:10D5B0000123984623707448011C1031734B0AAA4A
:10D5C000944663441A1C08F005FEA37B1B02627B91
:10D5D00013436382A92292009446B44462460B929C
:10D5E0002178A9229200B15464466382684BF018F6
:10D5F000664B0AAA94466344191C102209F000FFE6
:10D600006561102323831023638343462377E583D7
:10D61000B1239B00F3181A221A705E4BF31842468E
:10D620001A706562B3239B00F3181F705A4BF318EE
:10D630001F705A4BF3181F70B4239B00F550F3185A
:10D640001F71574BF318B7229200B11800221A70BD
:10D6500001338B42FAD1B4239B00F3181A613A4983
:10D66000D960B9239B00F250F3181A714D4BF3188F
:10D67000BC229200B11800221A7001338B42FAD1F9
:10D68000B9239B00F3181A61304ADA60BE239B006D
:10D690009C46B44463460C93C3229200B118002206
:10D6A0001A7001338B42FAD1C3239B00F254043326
:10D6B0009C46B44463460D93FDABFFA9083100229C
:10D6C0005A7001338B42FAD1FDAC002700256782E6
:10D6D0000123984623703448011C1031334B0AAAA9
:10D6E000944663441A1C08F075FDA37B1B02627B01
:10D6F000134363822178C4229200B154B418638228
:10D700002B4BF018294B0AAA94466344191C10228B
:10D7100009F076FE0C9B63611423238343466383E5
:10D720002377E783CC239B00F31810221A70012281
:10D73000204BF3181A706762CE239B00F3181D70FC
:10D740001D4BF3181D7039E0A15E0200B15E0200AE
:10D75000148D02001D0200002502000026020000B8
:10D760002D02000041020000D08C0200F5030000F1
:10D770005102000071020000790200007A020000EC
:10D780008102000095020000C08C0200E10300004D
:10D79000A5020000C5020000CD020000CE0200007C
:10D7A000D5020000E9020000348D0200CD03000024
:10D7B000110300003103000039030000EF4BF318A0
:10D7C0001D70CF239B00F750F3181D71EC4BF3181D
:10D7D000D2229200B11800221A7001338B42FAD182
:10D7E000CF239B00F3181A61E649D960D4239B002C
:10D7F000F250F3181A71E44BF318D7229200B118C3
:10D8000000221A7001338B42FAD1D4239B00F31803
:10D810001A61DE4ADA6053462E930D9B2F93059BC7
:10D8200030934B463193069B3293079B3393089B6F
:10D830003493099B35930A9B36930B9B3793F8AB34
:10D84000FCA900225A7001338B42FAD1F8AD0023B3
:10D8500098466B8201272F70CD48011C1031CD4BAB
:10D860000AAA944663441A1C08F0B4FCAB7B1B0262
:10D870006A7B134326AC2A782270638271200AAB3C
:10D880009C466044C34B6344191C102209F0B8FD48
:10D890000A2323752EABA3614346A383306806F0A9
:10D8A00039F903681B6826A99847BB4B1E60BB4B20
:10D8B0001B683B4200D095E3B94802F06DFA0122A3
:10D8C000B64B1A60B74809F028FDB74B1B68002B10
:10D8D00000D07EE1B14B1B68DB0708D4B04802F0F2
:10D8E0005BFA0122AD4B1A60AE4809F016FDD82054
:10D8F00002F0A0FA041C031C049A04C39846011CFD
:10D90000183100221A7001338B42FAD118239C4639
:10D91000A44463460593211C2C3100221A70013364
:10D920008B42FAD100232C32A3540132A35401328A
:10D93000A35430339946A144FFABE833FFA9F83133
:10D9400000225A7001338B42FAD1FFADE83500272F
:10D9500000266F8201239A462B709448011C1031D7
:10D96000FFAAE93208F036FCAB7B1B026A7B13434B
:10D970006B8229783022A1541232A352201C3130FC
:10D98000FFA9E931323A09F03BFD434663641422B2
:10D990004823E25202335246E252231C30331A77B4
:10D9A0004E23E752231C50330C221A7001220133FC
:10D9B0001A70676507331E7001331E7001331E70C5
:10D9C000E76502331E710533211C683100221A708D
:10D9D00001338B42FAD10023E3666A4AA2662367C9
:10D9E000221C70321371231C7533211C7C310022E0
:10D9F0001A7001338B42FAD18023E250634BE36704
:10DA000084239A46A244FFABD433FFA9E431002219
:10DA10005A7001338B42FAD1FFADD435002700266E
:10DA20006F82012398462B706148011C1031FFAAB8
:10DA3000D53208F0CFFBAB7B1B026A7B13436B82B2
:10DA400029788422A154251C84356B82201C8530C2
:10DA5000FFA9D531743A09F0D3FC059B6B611423FF
:10DA60002B8343466B832B77EF83231CA433102235
:10DA70001A70012201331A706F6207331E7001336E
:10DA80001E7001331E70B023E750231CB0331E718B
:10DA90000533211CBC3100221A7001338B42FAD1AC
:10DAA000231CB0331A613749D960C423E250231CC8
:10DAB000C4331A710533211CD03100221A7001338E
:10DAC0008B42FAD1231CC4331A61304ADA604B46C8
:10DAD0001B9353461C93FFABC033FFA9D0310022E8
:10DAE0005A7001338B42FAD1FFAEC03600277782DD
:10DAF000012333702F48011C1031FFAAC13208F0F6
:10DB000069FBB37B1B02727B13432EAD32782A7004
:10DB10006B8291200AAB9C466044FFA9C131102260
:10DB200009F06EFC02232B751BABAB61AF83206841
:10DB300005F0F0FF03681B682EA99847206805F0E0
:10DB4000E9FF061C142002F075F9051C076000238C
:10DB50000371431D011C0C3100221A7001338B42EA
:10DB6000FAD100232B61144A26922793281C10C057
:10DB700026A9082209F044FC20E0C0463A03000030
:10DB800041030000A15E020055030000B15E0200E7
:10DB9000F48C0200B9030000EC3400200C2F0020AC
:10DBA000E82D002075F80100CC280020B48D02007B
:10DBB000048D02008C8D02000D260200C94BEB6023
:10DBC000B369002B01D1B56101E02B61B561C64B92
:10DBD0001C60049805F0AAFF041C031C0A33D87FBC
:10DBE00000283CD0E37A072B08D0002200230CE069
:10DBF0001A1CE118C97A072907D100E00022251C68
:10DC00000A35AD18002D09D129E0211C0A318A5CA2
:10DC100001329B18DBB29842EAD820E0031C103393
:10DC20001F2B37DC231C0A331B18681C984200D3B7
:10DC3000DEE119781974013B9842FAD1D8E11DA9A7
:10DC4000585CE91888700133102BF8D1231C0A3373
:10DC5000995C10319954DA7F1032DA77CAE1031CEB
:10DC600012331F2B16DC1123251C0A352B54EB7F96
:10DC70000133DBB2EB770722EA54E87F0130C0B210
:10DC8000E87728181DA9093209F0BAFBEB7F103399
:10DC9000EB77AFE1049805F049FF041C03685B6B68
:10DCA00092499847231C0A33D97F002969D0E37A27
:10DCB000092B08D0002200230CE01A1CE018C07ABF
:10DCC000092807D100E00022261C0A36B618002ECB
:10DCD00009D156E0201C0A30825C01329B18DBB26D
:10DCE0008B42EAD34DE0231C0A339B5C9C465D1EAD
:10DCF000EDB2062D08D15B46F2187C49595C917053
:10DD00000133062BF8D157E04B1B06331F2B53DC96
:10DD10002F1C02357519231C0A335B189D420ED245
:10DD2000301C2B1C1A7802700130FA1C521B9B18F5
:10DD3000F318221C0A32D17F52189342F2D3634661
:10DD4000DF43C919C9B2231C0A33D9770B1C083326
:10DD50001F2B31DC0723251C0A356B54EB7F013365
:10DD6000DBB2EB770922EA54E87F0130C0B2E877F2
:10DD700028185F49033A09F043FBEB7F0633EB7742
:10DD800041E10B1C08331F2B16DC0723251C0A3529
:10DD90006B54EB7F0133DBB2EB770922EA54E87F67
:10DDA0000130C0B2E87728185149033A09F028FB3E
:10DDB000EB7F0633EB7726E1049805F0B7FE031CF2
:10DDC0000A33D97F00295BD0C37A012B08D0002207
:10DDD00000230CE01A1CC418E47A012C07D100E0DF
:10DDE0000022061C0A36B618002E09D148E0041C91
:10DDF0000A34A25C01329B18DBB28B42EAD33FE0CB
:10DE0000031C0A339B5C9C465D1EEDB2012D00D1C4
:10DE100024E14B1B01331F2B47DC2F1C02357519E6
:10DE2000031C0A335B189D420ED2341C2B1C1A783B
:10DE300022700134FA1C521B9B18F318021C0A3280
:10DE4000D17F52189342F2D36346DF43C919C9B256
:10DE5000031C0A33D977CB1C1F2B26DC0222031CA0
:10DE60000A335A54DA7F0132D2B2DA770121995457
:10DE7000DA7F511CC9B206245C540232DA77CBE057
:10DE8000CB1C1F2B11DC0222031C0A335A54DA7FED
:10DE90000132D2B2DA7701219954DA7F511CC9B22A
:10DEA00006245C540232DA77B6E0049805F03EFEB0
:10DEB000041C031C0A33D87F002834D0E37A032BD8
:10DEC00008D00022002315E01A1CE118C97A0329A2
:10DED00010D100E00022251C0A35AD18002D12D10A
:10DEE00021E0C046495F0200CC280020AC8D020032
:10DEF000748D0200211C0A318A5C01329B18DBB24E
:10DF00009842E1D80FE0031D1F2B26DC231C0A33A7
:10DF10001B18681C984200D386E019781971013BE0
:10DF20009842FAD180E0831D1F2B16DC0523251CA7
:10DF30000A352B54EB7F0133DBB2EB770322EA5433
:10DF4000E87F0130C0B2E87728184A49013209F069
:10DF500057FAEB7F0433EB7777E0049C201C05F045
:10DF6000E5FD00230371201C05F0E0FD041C03689F
:10DF70009B689847FA239B00984204D923689B68C2
:10DF8000201C984701E0FA208000FA239B005843A8
:10DF9000394909F08DFFE080049D281C05F0C6FD7D
:10DFA000041C0368011C0A31021C34325B6D984763
:10DFB000211C08C99B6D201C984700221BAB1A70BE
:10DFC000281C05F0B3FD03685B681BA92EAA9847BF
:10DFD00047E01D89294B1B685C89FEF79AFB448941
:10DFE000FEF797FB264B1B68002B00D0F1E57EE483
:10DFF0005B4624E62368211C0A31221C34325B6D07
:10E00000201C984746E62368211C0A31221C343222
:10E010005B6D201C9847CFE60368011C0A31021C87
:10E0200034325B6D984740E7124B1978A9705978E4
:10E03000E97099782971DB786B71231C0A33995C3C
:10E0400004319954DA7F0432DA772368211C0A31CB
:10E05000221C34325B6D201C98477EE70623B37088
:10E0600023E7084B9D443CBC90469946A246AB46EC
:10E07000F0BDC046E08C020071020000042F0020B9
:10E08000CC280020FC040000F0B55F4656464D4603
:10E090004446F0B4B9B0071CFF230B93BD4B1B786B
:10E0A000002B00D1B5E2BC4B1B68002B00D1B0E2C5
:10E0B0000CABFF225A709A70DA7010AA011D1191F0
:10E0C0002A21118100221A700388102B17D0828810
:10E0D000B249897A890701D401F070F9B0498A42BE
:10E0E00005D0AE490989914201D001F067F90CAA27
:10E0F000AA49C97A91700021517001F05FF9A74BCC
:10E100009B7ADB0700D484E2A448022383721122A5
:10E1100010AB1A7000220CAB5A70BB88038102232B
:10E120008372B91D073209F06BF97B7DDB070AD5D5
:10E130007B7D5B089B4AD35CFF2B01D101F048F942
:10E140000B9301F045F9BE1D974D0024002E04D11C
:10E150002A89934B9A420AD106E0281C311C0722D7
:10E1600009F03FF9002802D10B9401F031F9013494
:10E170001C35022CEAD133E288498A7A0223101C2A
:10E1800098438872120746D543B2002B6DDA0CAB68
:10E190009978864814AA06F039FC002865D10CABA2
:10E1A0005B785A00D3189B007C4AD3189B7A5B0695
:10E1B00001D47F4C00E07F4C0CAB9A78D3009B1AC3
:10E1C0009B007D49591814A81C220023A047002851
:10E1D00013D10CAB59784B005B189B006F4AD318D6
:10E1E0009A7A403082439A72CB00591A8B00734955
:10E1F000C91814A81C221C23A0470CA90B785A008C
:10E20000D3189B00644AD3189B7A9B006C4A9B5896
:10E2100014A8984729E00CAB9878FF2825D0C500B2
:10E22000291A89001031644E891900224A708A70B7
:10E23000CA700A714A718A712B1A9B009B191A6065
:10E240005A609A60DA60FF321A749A762B1A9B0031
:10E25000F3180121494219835A4901238340181CAC
:10E260000B6883430B600CAB9A7010224B4B9A7275
:10E27000023210AB1A700024B3E1484BDB7AFF2B5B
:10E280001CD1FB894C4A128B9A4206D04A4A928E84
:10E2900000219A4213D1012300E000230B93DBB24B
:10E2A0003E4CE372A17A08220A43A2720CA8837042
:10E2B00006F0DCFBE37A0021FF2B00D03F49B88851
:10E2C0003D4A002306F0D2FAA3E1132210AB1A70E4
:10E2D000324A907A042101439172D37AFF2B30D1D4
:10E2E000354B9B7EFF2B06D03623334AD35C01226D
:10E2F000FF2B01D034E00022284B1B78022B0FD0DB
:10E30000D3009B1A9B002C49CB18FD219976181C31
:10E3100022490C681C618B8883828B79837506E0A7
:10E32000D3009B1A9B002449CB18FE2199760BAB96
:10E330001A700B9BDBB20CAA9370184AD37200249C
:10E340000FE0162210AB1A701F4B00221A605A60A1
:10E350009A609A8144230343104A9372002400E098
:10E360001A4C002217920D4BD97ACB005B1A9B00F6
:10E3700011495B1818931992104B14931592169229
:10E38000B8880021124A14AB06F072FA002800D0B7
:10E390003FE126E1C4340020C83400206C33002063
:10E3A000FFFF0000DC31002004340020BC340020DA
:10E3B000C14002007D440200F4330020A029002067
:10E3C000348F020098330020803300204380000007
:10E3D000CC340020DA4A537A01218B435372D94A54
:10E3E000937A03318B439372103110AA1170BA796A
:10E3F000002A34D0D34BDC7AA1B2D34814AA06F059
:10E4000005FB002829D114A8542106F033FA00286E
:10E4100023D1E500291B89001031CC4E8919002237
:10E420004A708A70CA700A714A718A712B1B9B00EC
:10E430009B191A605A609A60DA60FF321A749A76F1
:10E440002B1B9B00F318013AFF3A1A83C04A0123A1
:10E45000A3401C1C1368A3431360BC79C1E0FA7984
:10E460000024520700D4BCE00CAA9078FF2801D108
:10E4700000F0BBFF08221343B24A9372FB7A9B075A
:10E4800008D5B24AC1000B1A9B00D3189A7E01210D
:10E490008A439A76AB4BDB7AFF2B01D100F0A8FFC1
:10E4A000A84B1B78022B10D0A84BC200111A890070
:10E4B0005918A44C26680E61A6888E82A4798C75A2
:10E4C0008B7E022293438B760BE0A049C3001A1A7D
:10E4D00092008A189F4C648A1483937E01218B4397
:10E4E00093760CAB9978984814AA06F08FFA002816
:10E4F0003AD10CAB5B785A00D3189B00914AD318E1
:10E500009B7A5B0601D4944C00E0944C0CAB9A7857
:10E51000D3009B1A9B008D49591814A81C22002374
:10E52000A047002813D10CAB59784B005B189B0017
:10E53000844AD3189A7A403082439A72CB00591A8F
:10E540008B008449C91814A81C221C23A0470CA9BD
:10E550000B785A00D3189B00794AD3189B7A9B00FA
:10E560007F4A9B5814A8984700243AE0BB79112BA6
:10E5700017D1744B997A0B0713D57A4B00221A6086
:10E580005A609A609A81163210AB1A7060230B435E
:10E590006C4A93726A4A517A02230B4353720024E5
:10E5A0001FE0684A937A802149420B4393721522F7
:10E5B00010AB1A70624B9B7A9B006B4A9B580CA85D
:10E5C000984700240DE05E4B9B7A9B00664A9B585F
:10E5D0000CA898471DE0132210AB1A70002400E02D
:10E5E000002410AD564B1B680CA8291C221C984710
:10E5F0002B78122B0DD1534B9B7A012B09D0514B09
:10E6000001229A72023A1A81DA7200221A609A8002
:10E610009A7102F0BBFF041C28239C468444634685
:10E6200001933B88303B9AB2082A00D9F5E2930067
:10E630004E4AD3589F46FB88002B6CD1031C843371
:10E6400000221A703B7B042B03D8021C8532137006
:10E6500003E00422031C85331A700022B6235B00FA
:10E66000E250E2186E3BFF3B5360BA225200A350C7
:10E670000432A3500432A350231C85331B78002B93
:10E680003DD0261C8A363D1C0E350023B846271C7B
:10E690001C1C281CAB78002B0DD1B6225200BB5895
:10E6A000591CB9509B00FB189B185C60AA88EB882A
:10E6B000B282F38219E02B889C461AAB00221A70B2
:10E6C0001EA900225A7001338B42FAD11AA963465F
:10E6D0004B8283889946C3889A46301C143208F0CE
:10E6E0008FFE4B46B3825346F38201341836083509
:10E6F0003B1C85331B789C42CBD33C1C4746B6233E
:10E700005B00E358002B00D187E2201C6D30FF3006
:10E7100007F054FB81E2836A9B68019898477CE28A
:10E72000FB88002B00D038E10022031C86331A70CE
:10E730003B7B042B1CD8021C873213701CE0C046A4
:10E74000C83400206C330020BC340020F433002097
:10E7500098330020A0290020014502007D440200DA
:10E76000348F020080330020448F0200D48D0200D9
:10E770000422031C87331A700022C2235B00E2507C
:10E78000E218863BFF3B5360C6225200A35004327E
:10E79000A3500432A350231C87331B78002B00D1D5
:10E7A000EFE0EC239946A144DE3B9A46BA440023AD
:10E7B0001D1C4E46B84653460293029B9B78002B85
:10E7C00067D1C2225200A358591CA1509B00E318E4
:10E7D0009B185D608023E3589B46A38D9A46029B5D
:10E7E000D8881A89AB005B195B0043449B7C5908AD
:10E7F000894699088C46D90804911F095909039143
:10E8000099090591594631605146F1837083B2836D
:10E8100068012018421CFF32111C0122134006918E
:10E82000087982460120514681438A464946114073
:10E83000480081465046034302208343494619431A
:10E84000634613409800FB2319400B1C011C19431D
:10E850008C46049B1340DB00F72160460840011CF6
:10E8600019433B1C13401B01EF20014019438C4608
:10E87000039B13405901DF2360461840031C0B43E0
:10E8800005990A409201BF210B401343069A137168
:10E890006BE08023E158A38D0093029F3888FB88AA
:10E8A0009B463B899A46AB005B195B0043449B7CCB
:10E8B000DF07FF0F6A461773177B08979F07FF0F45
:10E8C00009975F07FF0F07971F07FF0F0697DF06E0
:10E8D000FF0F03979F06FF0F04975B06DB0F05935F
:10E8E000B1463160009BF3831FAB00221A7023A94D
:10E8F000029F00225A7001338B42FAD102971FA95E
:10E9000048824B46181D143208F07AFD4B465A4691
:10E910005A8352469A836B01E3180133FF331A7905
:10E9200001218A4309994900089802430220824341
:10E930000A4307998800FB211140069AD20001433F
:10E94000082081430398000184460A4310218A432A
:10E950000499480161460A4320218A4305998901A7
:10E960000243402082430A431A7101352036029B3C
:10E970000A330293231C87331B789D4200D21CE785
:10E980004746C2235B00E358002B00D145E1201C21
:10E990008530FF3007F0D4F93FE1031C88331B7842
:10E9A000022B03D1031C883301221A70221C8432EB
:10E9B00013780133137030E1836A5B6801989847DC
:10E9C000002800D129E1231C88331B78032B5ED15A
:10E9D000CC4BFA689A4242D114A87969102208F007
:10E9E0000FFDB6235B00E358002B14D0221C6D32C0
:10E9F000FF3255685A1EB62149006250002A0CD0D9
:10EA0000221C7132FF325B339B00E318516802C253
:10EA10009A42FBD101E001256D426B0098465E19D8
:10EA2000F600A619331C883301229A70301C8B30F3
:10EA300014A90F3208F0E4FC311C98319536F378B4
:10EA40001A022B1C4344DB00E3189433DB78134396
:10EA50008B80201C6D30FF3007F0B0F9DDE0B6236D
:10EA60005B00E358002B00D14AE25A1EB621490050
:10EA70006250002A00D1D0E0221C7132FF325B3399
:10EA80009B00E318516802C29A42FBD1C5E0042BF7
:10EA900000D0C2E09C4BFA689A4240D17B69D91CF5
:10EAA00014A8102208F0ACFCC2235B00E358002B32
:10EAB00014D0221C8532FF3255685A1EC2214900EB
:10EAC0006250002A0CD0221C8932FF3261339B0035
:10EAD000E318516802C29A42FBD101E001256D4260
:10EAE000AB1D5B01E218283201211172E3183133AA
:10EAF000181C14A9102208F083FC6B01E318191CE0
:10EB0000F8311A1CF532527A1202F4335B7A13434D
:10EB10004B81201C8530FF3007F012F97DE0C223C5
:10EB20005B00E358002B00D1EAE15A1EC2214900E4
:10EB30006250002A71D0221C8932FF3261339B005F
:10EB4000E318516802C29A42FBD166E014ABBA885E
:10EB50001A80BA895A80FA899A803A8ADA803A1CED
:10EB60001232169202F012FD051C8368C3600AE09F
:10EB7000C36814A99847EB68002B02D1AB68EB601F
:10EB800001E01B69EB60E8680028F1D145E014ABB7
:10EB9000BA881A80BA895A80BA7B1A713A8ADA809E
:10EBA0007A8A1A813A1C1432179202F0EFFC051C83
:10EBB000436983610AE0C36814A99847AB69002BD5
:10EBC00002D16B69AB6101E01B69AB61A8690028E8
:10EBD000F1D122E014ABBA881A80BA895A80BA7B84
:10EBE0001A713A8ADA803A1C1232169202F0CEFC7E
:10EBF000051C036A002B01D000F0FDFB0DE0C3688B
:10EC000014A998476B6A002B02D12B6A6B6201E052
:10EC10001B696B62686A0028F1D1231C88331B785A
:10EC2000022B00D06CE1231C86331D7801331B7846
:10EC3000AB4201D800F0EBFB29AB00221A702DA9E2
:10EC400000225A7001338B42FAD129AB5A825823E1
:10EC5000E35C002B0DD129AB1B78002B01D000F019
:10EC600025FC231C58335B8A002B01D000F01EFCCE
:10EC700062E00022012B60D129AB1B78012B01D06F
:10EC800000F009FC201C59307D210AAB9C466144F0
:10EC9000103208F0A6FB0122002801D000F0FBFB97
:10ECA0004BE0221C58326B01E318F833528A5B891F
:10ECB0009A4248D10BE0A91D490161183131201C4D
:10ECC0005930102208F08DFB0022002835D124ABEA
:10ECD00000221A7028A900225A7001338B42FAD1FF
:10ECE00024AB5A822E23E35C002B0FD124AB1B787C
:10ECF000002B1ED1231C2E335B8A5A425A41D2B2BA
:10ED000017E0C04601001000010013000022012B93
:10ED10000FD124AB1B78012B0BD1201C2F30692184
:10ED20000AAB9C466144103208F05BFB4242424110
:10ED3000D2B201235A4000E00122002A03D0E36E40
:10ED4000002B00D05AE3231C86331D780135EDB229
:10ED50001D7002331B78022B00D0D1E0231C8733B7
:10ED60001B78AB4200D967E751E314A908804E80B5
:10ED7000A08D07F067F8002800D1C1E0231C88337C
:10ED80001B78022B03D1231C883301221A70221C0A
:10ED90008432137801331370B2E0231C88330122CC
:10EDA0001A700131043B1970AAE033AB00221A70CB
:10EDB00037A900225A7001338B42FAD133AB5A8201
:10EDC0002E23E35C002B0BD133AB1B78002B00D040
:10EDD00076E3231C2E335B8A002B00D070E331E0F6
:10EDE0000022012B2CD133AB1B78012B00D072E316
:10EDF000201C2F30A5210AAB9C466144103208F03C
:10EE0000F0FA002800D066E31CE06A005219D20034
:10EE1000A2189832231C2E335B8A92889A1A514288
:10EE20005141CAB20CE069004919C90061188B311F
:10EE3000201C2F30102208F0D4FA42424241D2B2B4
:10EE4000002A59D0636C002B00D0FDE235E000228F
:10EE50005A7001338B42FAD12EAB5A825823E25CAE
:10EE6000002A0BD12EAB1A780023002A1AD1231CBA
:10EE700058335A8A53425341DBB213E00023012A2C
:10EE800010D12EAB1A780023012A0BD1201C593047
:10EE900091210AAB9C4661440F3208F0A2FA43422A
:10EEA0004341DBB2002B08D0201C443069004919D3
:10EEB000C90061188A31236D9847231C88331B7859
:10EEC000012B13D1E36E002B00D00FE30EE0231CC7
:10EED00088331B78022B03D1231C883301221A703C
:10EEE000221C843213780133137009E0221C84320F
:10EEF00013780133137003E00135231C84331D7034
:10EF0000231C88331B78012B41D1231C84331D78AB
:10EF100001331B789D4200D247E79AE2002D36D09C
:10EF2000013D6B005B19DB00E3189833198900225F
:10EF3000231C85331A70013B1A70BE4B994210D1C5
:10EF4000A36A5B6801989847231C883300221A70D3
:10EF500000281CD0CE235B00E358002B00D0E6E253
:10EF600015E0A08D002206F06FFF00280FD0A36AE5
:10EF70005B6801989847231C883300221A70002888
:10EF800005D0CE235B00E358002B00D0D7E23B88AE
:10EF9000103B9AB20B2A00D9C3E09300A64AD3587B
:10EFA0009F46BD883E7D07F0FDFBE023C55207F07C
:10EFB000F9FB041CB879797B58239846E35C9C469E
:10EFC0000223624613434246A35414AB1D809E7035
:10EFD000D87099723A1C16321992F91D15A806229A
:10EFE00008F00EFA33200AAB9C466044391C0E31FF
:10EFF000062208F005FA231C94335A689A6010E040
:10F00000C36814A99847231C94339B68002B04D130
:10F01000231C94335A689A6003E01A69231C9433C2
:10F020009A60231C943398680028E9D179E0BE885F
:10F0300007F0B8FB01225242E023C252BD79162DDF
:10F0400003D03B2D02D13B2500E0162507F0AAFB9B
:10F05000041C5822835C02218B43835414AB1E8012
:10F060009D70031CA0335A689A6010E0C36814A90D
:10F070009847231CA0339B68002B04D1231CA0338A
:10F080005A689A6003E01A69231CA0339A60231C13
:10F09000A03398680028E9D143E006F0D7FEBA888B
:10F0A000B91D4369002B3CD0101C984739E007F08C
:10F0B00079FB041CBD79436E002B00D0CDE130E01C
:10F0C000C368291C9847A36E002B02D1636EA36608
:10F0D00001E01B69A366A06E0028F1D121E007F0D2
:10F0E00061FB061C7A7B9146BD7B01232B40984631
:10F0F0006B079B0F9A46ED0814ACF91D201C0622E5
:10F1000008F07EF94B46A3714346E37153462372E0
:10F1100065723B1C0F33E360301C8030C368211CD8
:10F12000984706F071FB041C3B88512B5DD004D836
:10F13000012B40D0502B05D018E2522B4ED0532B30
:10F1400036D013E2FD884079002800D10EE2BC23BE
:10F15000E35AAB4209D10FE00832111C0839098883
:10F16000A94205D15A1C08D1FDE1221CC43200235A
:10F1700001338342F0D1F6E100239B00E3189A6E3D
:10F180002023D15C10330B4200D1ECE10F3BFB5C40
:10F190001B022020385C0343880602D5980700D55F
:10F1A000D5E1C90600D4D8E1DB0700D5CFE1D4E131
:10F1B000FD88052624E03D7AC36803610AE0C36840
:10F1C000291C98472369002B02D1E368236101E0E1
:10F1D0001B69236120690028F1D1C7E1B8880021AB
:10F1E0000022002302F0A6F9C0E1BB79012B02D076
:10F1F000022B03D0BAE13D89062601E03D890726AE
:10F200006079002800D1B1E1B823E35AAB4209D1BB
:10F2100014E00832111C08390988A94205D15A1C8A
:10F220000DD1A3E1221CC032002301338342F0D16F
:10F230009CE1C046FFFF0000F88D02000023062E6F
:10F2400070D0072E21D0022E00D0A4E014ABBA88D3
:10F250001A805D803A7A1A71BA8BDA80FA8B1A8139
:10F260003A1C20321792A369E3610AE0C36814A92B
:10F270009847E369002B02D1A369E36101E01B69B0
:10F28000E361E0690028F1D170E10CA900220F923E
:10F29000B88808804D80F88B8880388CC880222000
:10F2A0008046B84440460E9010A9109211921292D6
:10F2B000139202320A701A339B001B592832995C50
:10F2C0000022002906D0181C40300CAEDB6C311C2B
:10F2D0009847B28910AEB280B888311C02F02CF980
:10F2E000B388002B00D041E114ABBA881A805D804E
:10F2F000BA7A1A71FA8BDA803A8C1A8142461792DE
:10F30000A369E3610AE0C36814A99847E369002B85
:10F3100002D1A369E36101E01B69E361E0690028B0
:10F32000F1D123E110A90022119212921392B88810
:10F3300008804D80B88B888014A91492159216927B
:10F34000179201320A701A339B001B592832995CBC
:10F350000022002906D0181C2C3010AC9B6B211CFD
:10F360009847A28914AB9A8010AB9B89002B0DD1D2
:10F37000129900290AD014AA9079012303439371AA
:10F3800010AB98881081DB8853811791B88814A935
:10F3900002F0D2F8EAE0042E08D0052E0AD0032E9F
:10F3A00000D0E3E0E36A002B63D1DFE0236C002BA5
:10F3B00065D1DBE0636D002B67D1D7E0103B9AB2DB
:10F3C000422A01D9FFF725F993006C4AD3589F468A
:10F3D0000B9BDBB26A4AD3720A2191720CA883702C
:10F3E00005F044FB0024FFF7FCF80024FFF7F9F8D0
:10F3F0000024FFF7F6F84362FFF70CFC201C6C308A
:10F4000006356D0161192C31A36F98479BE4221CCE
:10F4100086321378013B5B01E3180133FF3318890F
:10F42000013080B2231C843319784B005B18DB0059
:10F43000E31898331E890025231C87331D7015702F
:10F44000B04200D3A9E490E42EAB00221A7032A996
:10F45000FDE4002B00D061E599E583663BE6201CC6
:10F460002C30A36B984781E0201C4030E36C984718
:10F470007CE0201C2C30A36B291C984776E0201CD4
:10F480004030E36C291C984770E0201C5430236EF8
:10F49000291C98476AE0AB1D5B01E31828331B7AEF
:10F4A000012B01D1FFF707FC002246E4AB1D5B01F5
:10F4B000E31828331B7A002B01D1FFF7F2FB42E45B
:10F4C0006B005B19DB00E31888339B780022002B6C
:10F4D00000D0B5E499E46B005B19DB00E3188833D6
:10F4E0009B78012B00D19EE40022A9E4A08D231C6F
:10F4F00084331B785900CA18D200A2189832D288D7
:10F50000CB18DB00E31898331D890021231C8733B7
:10F510001970013B197002330231197014A90A8065
:10F520004D8006F08FFC002800D0D0E4E8E4231CD6
:10F530009D33FF33181CA18DDB68984727E5231CFA
:10F540009D33FF33181CA18DDB6898471FE5D18BD5
:10F55000E36A002B00D082E708E0D18B236C002BFC
:10F5600000D081E702E0607902264DE639B03CBC6C
:10F5700090469946A246AB46F0BDC046288E020092
:10F580006C3300207047C0462B23C35C002B0DD08A
:10F59000C36A002B0AD0934208D2BFF34F8F044AAC
:10F5A000044BDA60BFF34F8FC046FDE77047C0469B
:10F5B0000400FA0500ED00E010B54B68DA0701D44D
:10F5C0000A6803E05A1084580A68A2585B10C018F1
:10F5D000904710BD038A8386012337228354013A62
:10F5E00083547047817770477047C0467047C04664
:10F5F0007047C0467047C0467047C0467047C04617
:10F600007047C04608B502F0B3F808BD08B502F06F
:10F61000AFF808BD38B5051C141C02F097FE23781E
:10F6200001229343662B15D16278A3781B02298AA5
:10F63000134399420ED12379002B06D1AB68DB6EC0
:10F64000054A94466344EB6204E0012B02D1AB68A7
:10F6500000229A8438BDC0461027000010B5041C53
:10F6600007F0AAFE201C10BD08B4024B9C460438CB
:10F6700008BC60475DF6010010B5041C094B03602F
:10F6800040334360084AC823C3589B000021995067
:10F69000064BC365836F9B00995007F08DFE201CBD
:10F6A00010BDC04658900200A02F0020A09202007A
:10F6B00008B4024B9C46043808BC604779F6010048
:10F6C00010B5041C07F078FE201C10BD08B5038A95
:10F6D000038501232B228354013A83540023C36200
:10F6E00030300249233A07F08BFE08BD688F0200D4
:10F6F000F0B587B0051C141C594B1868101AFA2174
:10F70000890008F0D5FB002814D0AB6A9C46604401
:10F71000A862544B1B6803905A1CFF32D78B1868A1
:10F7200004F0F8F9036800220092DE68391C03AA8D
:10F730000423B0474A4E3368E01AFA21890008F0E2
:10F740003DFC641A34603723EB5C002B00D184E06D
:10F7500080235B00EB58002B03D0002280235B004A
:10F76000EA50EA68536801335360AB7F002B74D1D1
:10F770003D4B1968EB685A68186882421BD37F2298
:10F780000A403A48D200FC242C5914508218A86A26
:10F7900050600131344A1160354A12688A1A802A51
:10F7A00002D98039324A11600021FC22A9505A68DE
:10F7B0001968521A5A602E4B1B682B4A1268D21ACB
:10F7C000002A4ADD7F221340284ADB009D58D318C7
:10F7D0005E680B246C4400232370002004F016FAAA
:10F7E00004F098F903681F4A116804315B69221C10
:10F7F0009847002004F00AFA4068002802D101303E
:10F8000007F094FD03681B699847836D9B0724D517
:10F810000B236B441B78002B08D11EE0013A124BDE
:10F820001A601AE00133124A136016E00D4B1C688F
:10F8300004950596206804F06DF90368618C002238
:10F840000092DC6804AA0823A047074B1A68084BFB
:10F850001B68D11A0129E5D1E0E707B0F0BDC04629
:10F86000C02D0020EC340020C42D0020C029002031
:10F87000BC29002030B583B0104B114A08321A6001
:10F880005C689D68AC4211D02368181C0C380D4A86
:10F89000904208D0043B1A68511E1960002A02DC0D
:10F8A00001A907F02FFC0434A542EDD1034B5868A1
:10F8B000002801D007F080FD03B030BDE82D002006
:10F8C000588F0200DC35002070B582B0061C124B48
:10F8D0000833036044688568AC4211D02368181C63
:10F8E0000C380E4A904208D0043B1A68511E196029
:10F8F000002A02DC01A907F005FC0434A542EDD181
:10F900007068002801D007F057FD301C07F054FD47
:10F91000301C02B070BDC046588F0200DC3500209C
:10F9200070B582B0061C104B0833036044688568CC
:10F93000AC4211D02368181C0C380C4A904208D0F5
:10F94000043B1A68511E1960002A02DC01A907F065
:10F95000D9FB0434A542EDD17068002801D007F02E
:10F960002BFD301C02B070BD588F0200DC3500202A
:10F9700008B507F021FD08BD7047C04608B4024B2A
:10F980009C46043808BC604779F90100074B0360C6
:10F9900040334360064AC823C3589B000021995056
:10F9A000044BC365836F9B009950704758900200C9
:10F9B000A02F0020A092020008B4024B9C460438FD
:10F9C00008BC60478DF9010070B582B0051C041CAD
:10F9D0003834201C2A210222524203F053FA002616
:10F9E0000096201C2A2139225242202303F066FA75
:10F9F000583501232B700096201C2A2103225242E5
:10FA0000013303F05BFA201C0E21122203F006FAE8
:10FA1000201C0F21012203F001FA201C15210822CD
:10FA2000524203F0FBF9201C17216F22524203F0CF
:10FA3000F5F9201C1821012203F0F0F9201C2C21DB
:10FA4000082203F0EBF9201C2921022203F0E6F939
:10FA5000201C2B21042203F0E1F9201C2D2104227B
:10FA600003F0DCF9201C2A21012203F0EDF902B099
:10FA700070BDC046F0B54F464646C0B483B0041CC6
:10FA800000226B46DA70E8E0C823E3580021794A87
:10FA9000D154271C38376B46DE1C381C0C31321C05
:10FAA000012302F0DDFF744A156801232B43136024
:10FAB00033785B0700D4C4E06B46DE1C381C16218B
:10FAC000321C012302F0CCFF33787F2B00D8B0E04A
:10FAD000231C58331B78022B20D05A1E934102223C
:10FAE000D31A381C012101AA02F0BAFF002818D14C
:10FAF000231C58331B78002B0BD16B4601AA1178BD
:10FB0000D97152789A71063300229B5E1B11994677
:10FB100009E001AB1B785BB2994604E000239946EB
:10FB200001E000239946231C58331B78022B20D078
:10FB30005A1E93410222D31A381C032101AA02F053
:10FB40008FFF002818D1231C58331B78002B0BD1B2
:10FB50006B4601AA1178D97152789A710633002642
:10FB60009E5F3311984609E001AB1B785BB2984663
:10FB700004E00023984601E000239846231C5833F4
:10FB80001B78022B1ED05A1E93410222D31A381C16
:10FB9000052101AA02F064FF002815D1231C583367
:10FBA0001B78002B0AD16B4601AA1178D9715278C3
:10FBB0009A71063300229B5E1E1106E001AB0026FF
:10FBC0009E5702E0002600E000264B465B4342467B
:10FBD00052439B1876439E1910218022D2050023A0
:10FBE0009818864203D3361A50001B189BB25B0844
:10FBF000920801390029F3D19E4201D901339BB209
:10FC0000226B934208D3032215431B4A15608021BF
:10FC10004900625801326250E26A934218D3164A90
:10FC2000042311680B431360FC22A3580133A35033
:10FC30000EE009231D43104B1D60201CFFF7C4FE7E
:10FC400006E011231D430C4B1D60201CFFF7BCFE7A
:10FC5000C823E3580121074AD154201CAC3003F0DB
:10FC6000FDFC002800D10FE703B00CBC904699467C
:10FC7000F0BDC04620300020C82D00203ADF70477C
:10FC800010B580235B00C35C002B33D1A433C35871
:10FC90009A8A002A2ED001218022520081549A8A09
:10FCA000002A0AD0DC682268002A05D11A69944229
:10FCB00002D91C68043400E004342388002B0AD1E4
:10FCC000A36861681631C90041186288181C0023B6
:10FCD00004F00CFE0EE0012B0CD163681633DB0040
:10FCE000C018802104F0C6FD002803D000210022A6
:10FCF00006F02CFE10BDC046F8B5531D0469C5685A
:10FD0000AC4210D34668371BBB4207D30768ED1BD4
:10FD1000AB4203D8076100233B6008E0E3180024EE
:10FD20009E4204D816E0E31800249D4212D9141C08
:10FD3000051C03691A600369181D07F061FB043490
:10FD40002B699C4664442C6100232360AB8A0133F9
:10FD5000AB820124201CF8BD2DDF70472CDF7047DB
:10FD60002BDF7047F8B50F1C161C1D1C002A0ED087
:10FD70000024731EA34201D8054900E005493A5DFD
:10FD8000281C07F005F92D180134B442F1D1F8BD53
:10FD9000788F0200708F0200044B08330360002349
:10FDA00043608360C360036103757047588F02002E
:10FDB00008B5074B1B68DB0708D40648FFF7ECFFC4
:10FDC0000122034B1A60044807F0A7FA014808BD56
:10FDD0000C2F0020E82D002075F801004379002B3E
:10FDE0000ED00379002B05D00168064BA022D20566
:10FDF000D15005E00168A123DB00A022D205D1503B
:10FE00007047C0460C0500004379002B0ED00379E3
:10FE1000002B06D00168A123DB00A022D205D1501F
:10FE200004E00168024BA022D205D1507047C046C1
:10FE30000C05000038B5051C07F0B4FA041E03D009
:10FE400000212A1C07F0F9FA201C38BDF0B583B058
:10FE5000071C041C1C4B083308C41820FFF7EAFFDA
:10FE60000023838204603A1CA4324260A0220281F3
:10FE7000C46004617B60A433F8505C330022FA5400
:10FE8000803B6A4693807F3BD380104B009304F005
:10FE90006DFF002803D00021002206F057FD3E1C14
:10FEA000A8366846311C04F0B5FE3D1CB035002470
:10FEB000A1B2301C2A1C04F0A9FD013408350A2C1B
:10FEC000F6D1381C03B0F0BD808F020029FF01007D
:10FED00010B584B0041C114B1B68DB0708D4104814
:10FEE000FFF7B4FF01220D4B1A600E4807F015FA18
:10FEF000A28C638A216A029169464A800193039425
:10FF000001230B80064CA333E0581022FFF7F4FEC8
:10FF1000201CFFF7B5FE04B010BDC046102F002016
:10FF2000002E002001F6010038B5042938D1002A3E
:10FF300000D08AE0564B1B68DB0708D45548FFF712
:10FF400085FF0122524B1A60534807F0E6F9A423BB
:10FF5000504AD3589A8A002A0AD0DC682268002ABC
:10FF600005D11A69944202D91C68043400E00434B3
:10FF7000474B1B68DB0708D44648FFF767FF0122A1
:10FF8000434B1A60444807F0C8F960681630C00057
:10FF9000404BC018A1686288002304F0B1FA76E0F3
:10FFA000023901294FD8002A4FD1394B1B68DB0792
:10FFB00008D43848FFF74AFF0122354B1A6036480B
:10FFC00007F0ABF9A423334AD3589A8A002A10D0F9
:10FFD000D9680868002804D11869814201D91968D4
:10FFE000D960D868051D018804314118D960013AEB
:10FFF0009A822B88002B03D1E86803689B68984796
:020000022000DC
:10000000234B1B68DB0708D42248FFF71FFF0122A0
:100010001F4B1A60204807F080F9002180235B0005
:100020001C4AD1541A4B1B68DB0708D4101CFFF77D
:100030000DFF0122164B1A60174807F06EF915489C
:10004000FFF71EFE23E0002A21D0114B1B68DB07BF
:1000500008D41048FFF7FAFE01220D4B1A600E4833
:1000600007F05BF9002180235B000A4AD154084B5A
:100070001B68DB0708D4101CFFF7E8FE0122044BC5
:100080001A60054807F049F90248FFF7F9FD38BD45
:10009000102F0020002E002001F60100F0B55F4671
:1000A00056464D464446F0B4A7B0FFF781FE0CA873
:1000B000FA490DAA07F050F80C980C3818A907F067
:1000C00013F8FFF775FE0EA8F5490FAA07F044F8DC
:1000D0000E980C3819A907F007F8FFF769FE10A869
:1000E000F04911AA07F038F810980C381AA906F050
:1000F000FBFFFFF75DFE12A8EB4913AA07F02CF8EF
:1001000012980C381BA906F0EFFFFFF751FE14A858
:10011000E64915AA07F020F814980C381CA906F037
:10012000E3FFFFF745FE16A8E14917AA07F014F808
:1001300016980C381DA906F0D7FFDE4B1B68DB07AD
:1001400008D4DD48FFF782FE0122DA4B1A60DB4853
:1001500007F0E3F88020FFF76DFE061C041DD84B66
:100160001A1C083202601A1C2C3242604C33836025
:1001700000230373C362036343638363C363036442
:1001800043648364C3640365CE4A10608367436736
:10019000036600200021B065F165B3660121542299
:1001A000B1540132B354F3663367C74B1B68002B5D
:1001B00066D1D130FF30FFF73DFE051C002036230D
:1001C000E85432229733FF33EA54286303F01EFDCC
:1001D00007AB132104AA9446614400225A710133EB
:1001E0008B42FAD10390B94B089391460992079537
:1001F0001EAB9C4607AB624683CB83C2B44B6246C0
:10020000D36063464A461A610398614603F032FDA3
:100210004B46AB861C20FFF70DFE80462B1C383367
:100220004946018343602A1CC932FF328260C822DA
:100230005200828103614361FFF792FD43465B698F
:100240004A461A70E4235B004246EA5043464A4657
:100250001A835B684246136153614A461A70012251
:100260003723EA549B4B2B604B466B60AB604B468D
:10027000AB734B46AB814B46EB732B74924B1D60BB
:10028000914B1D68944B9B461D602C633C20FFF7EF
:10029000D1FD041C8660C560904B0382012343821C
:1002A000002500239A46857714308D490A2207F0ED
:1002B000A7F88C4B1A1C0832226048336360231C59
:1002C000283323621423A384201CFFF7FFF9201C8A
:1002D00002F006F9F46281208000FFF7ABFD041CF8
:1002E00086605B461B68C3603C230382383B9846AC
:1002F0004382056200278584877714307A490A2271
:1003000007F07EF8794B1A1C08322260483363608C
:10031000774B994626239C46A44463460393604644
:100320004946062207F06CF8201C2C304A46083259
:10033000111C062207F064F8201C32304A461032A5
:10034000111C062207F05CF8201C38304A4618328F
:10035000111C062207F054F8201C3E304A46203279
:10036000111C062207F04CF8201C44304A46283263
:10037000111C062207F044F8201C4A304A4630324D
:10038000111C062207F03CF8201C50304A46383237
:10039000111C062207F034F856229446A444624603
:1003A0004946403104926046062207F029F8201C95
:1003B0005C3049464831062207F022F8201C6230A2
:1003C00049465031062207F01BF8201C6830494985
:1003D000062207F015F8201C6E30494660310622CF
:1003E00007F00EF8201C74304249062207F008F886
:1003F0007A208446A4446046494668310590062226
:1004000006F0FEFF80235246E254201C80304560F7
:100410008560C560056145610C21002203F054F838
:10042000201C9830052104F0D7F9201CA0300621AB
:1004300004F0D2F9A8235246E254201CA8304560AB
:100440008560C560056145610821002203F03CF824
:10045000C0235246E2549946A1444B4601225A60B9
:10046000254B4A46D360254B1361254B5361254BE1
:100470009360A023DB059A46E023DB005246D5506B
:100480004846032104F06AF9201CD830112103F0FA
:10049000F5F8201C2930FF300E2135E0F8900200DD
:1004A000009102000C910200149102001C910200C4
:1004B00024910200102F0020002E002001F60100E0
:1004C000A0900200DC2D0020E42D002099C1010045
:1004D0001960020070170000D42D00203075000054
:1004E0002C91020000900200349102005091020011
:1004F000908F0200E88F0200080500500C050050A4
:10050000100500501405005003F0B8F8DC4B1C60D7
:10051000231C7933FF3323624346A384201C01F05C
:10052000DFFFDF235B00E552023BE5522633E55255
:10053000023BE5525A3BE5520233E5520233E552A3
:100540000233E5520C3BE550043BE5521433E550D1
:100550000433E5500433E550201C9D30FF300399EF
:10056000062206F04DFF231CC133FF33181C0599EA
:10057000062206F045FFD1235B000520E05424331A
:100580000520E0540C20FFF755FC0123437107714F
:100590008023DB0503605146A322D2008B50856087
:1005A000FC235B00E0500C20FFF744FC0123437167
:1005B0000771434603605346A321C90042465A507F
:1005C0008560FE235B00E0500C20FFF733FC012325
:1005D0004371077180235B0503605146A322D2005B
:1005E0008B50856080239B00E050201C002102F08E
:1005F000C1FCDF235B00E35A5A1CDF20400022527B
:10060000032213405800C0184300E018A530FF3003
:100610000499033206F0F4FEF8235B00E754F2235A
:10062000FF330522E2540133E5520233E55202332F
:10063000E754F822FF32A35C01218B4301318B4345
:1006400041468B4304318B4308318B4310318B433C
:1006500020318B43A354C2235B00E754201CDC30C1
:100660003D3904F07BF888235B00E450854A04336D
:10067000E2500433E550231C1133FF33824A924683
:100680005A61201CF4300221012203F0FFFF201CDC
:100690002D30FF30032104F061F8B0235B00E450FB
:1006A0007A4A0433E2500433E550231C6133FF33AC
:1006B00052465A61201C4530FF300221012203F0CE
:1006C000E5FF4846032104F049F8231CE533FF33D6
:1006D0001F705F709F70DF701F715F719F71DF719E
:1006E0001F725F729F72DF72B46382204000FFF757
:1006F000A1FB041C5B461B68C36086604623038223
:10070000413B4382056285848777143060490A2221
:1007100006F076FE5F4B1A1C083222604833636095
:10072000A563231C38331F715F7125641F735F73CA
:10073000594BA364594B1B78012B0DD1574B5B7858
:10074000012B09D1554B9B781F2B05D1231C383326
:1007500001225A73524D33E0524B1B78012B0DD1BD
:10076000504B5B78012B09D14E4B9B781F2B05D149
:10077000231C383302225A734B4D21E0474B1B7820
:10078000002B0AD1454A0133137053701F21917019
:10079000221C38325373424D12E0424B1B78002B1F
:1007A0000BD1404B01221A705A701E329A70231CD2
:1007B00038331D3A5A733C4D02E0012006F0B6FD75
:1007C000A023DB05394A9446394A61465A503949D3
:1007D0008A465A50002290460932FF324146A950BB
:1007E0001432A950A122D2001F31A95032481E391B
:1007F0002950CC277F0431482F50281C3930FF3036
:100800002F4FA221C900894678501D38FF382D4945
:1008100078500121B950A020C00005272F502F5833
:1008200041462950614659588846274861465850E4
:10083000514659588C4651465850022098508020B5
:100840000006985004200138C046C046C046C04645
:10085000C046C046C046C046C046C046C046C04668
:10086000F1D14A469B585B0801221A422ED04B46D2
:10087000A022D205D358002B00DA57E0122126E03F
:10088000082F0020C125020095250200B125020095
:100890003891020050900200A0860100CC2D00206B
:1008A00000300040D02D0020004000407C070000B8
:1008B0000C060000040700000C05000024050000E1
:1008C00000F00140140500000D0600001221A023D5
:1008D000DB0580221206BC481A5004200138C046AD
:1008E000C046C046C046C046C046C046C046C046D8
:1008F000C046C046C046F1D1A120C0001A50042015
:100900000138C046C046C046C046C046C046C04684
:10091000C046C046C046C046C046F1D1A222D20061
:100920009B589B0702D401390029D0D1A023DB05B5
:10093000A64A41469950A64A61469950A022D20043
:10094000AF50A563231C38331F2159711E3919710B
:1009500000232431FF316B50A16B8B509D4AA16B5A
:100960008B506433013B002BFCD1271C3837012509
:10097000984BA26BD550A023DB05C022D20093492F
:100980005A5093495A501F22A123DB00A16BCA5031
:100990008D4BA26BD550904ACC235B04A16B8B503E
:1009A0000521A023DB00A06BC1508C4B1F608C4B3A
:1009B000E364A3642364CD23DB04A16B8B503B234E
:1009C0002365013B6365231C583300221A70009590
:1009D000381C2A21033A002302F070FA0222231C59
:1009E00059331A700095381C0E21063A022302F082
:1009F00065FA201C5C300D2102F040FE201CAC305A
:100A00000F2102F03BFE774B1C60774B1B682B429B
:100A100007D17648FFF7C0F9734B1D60744806F0A4
:100A20007CFC25A8734924AA06F096FB259B181C7C
:100A30000C38714A904208D0043B1A68511E196064
:100A4000002A02DC23A906F05DFB231C3433236259
:100A50000423A384201C01F043FD0025FC23E55062
:100A6000A562FB3BE36263332363201CB0300321A8
:100A700003F074FEE423E450604A0433E25004338C
:100A8000E550231CE4335E4A5A61201CC830022121
:100A9000012203F0FBFD201CFEF796FFF463594B87
:100AA0001B68002B12D11420FFF7C4F90123037037
:100AB00043702B1C857032224260058102334381D2
:100AC00004338381504B03614E4B18604D4B1B68C0
:100AD0001B78002B06D001235B423361301C05F0EC
:100AE0002FFB21E0494B1B68DB0708D44848FFF780
:100AF000ADF90122454B1A60464806F00EFC07A9E5
:100B0000331C10338B601C234B8000234B60321C42
:100B10000832CA600B803E4CA433E0581022FFF725
:100B2000EBF8201CFFF7ACF83B4B1E603B483C4BFE
:100B300083610023C3623B4902F080FD364B186895
:100B4000002833D06423C35A002B2FD0C26ED21892
:100B5000C266826ED31A83665522815C002903D057
:100B6000002B01DC05F094FA2B4B1B6864229D5A84
:100B7000DC6E0026284B1A68002A0FD0331C0A337B
:100B80009B00D3185868002808D0036ADB78002B34
:100B900004D003685B6A291C221C984701360A2E80
:100BA000E8D11D4B1A6800216423D152002003F0C4
:100BB0002DF84068002802D1013006F0B7FB036829
:100BC000DB6A9847BAE7C0460C0500007C070000C6
:100BD00004070000FC0F000024050000982F0020EF
:100BE000801A0600E02D00200C2F0020E82D0020A8
:100BF00075F8010044910200DC35002075FA01000F
:100C0000B9F50100042F0020264E0000102F00200F
:100C1000002E002001F60100D82D002074340020A1
:100C2000D564020050C300000020704702207047C6
:100C30000220704702207047022070470220704750
:100C4000022070470220704708B50368002B01D0CE
:100C5000081C984708BDC04608B50368002B01D0A2
:100C6000081C984708BDC04608B50368002B01D092
:100C7000081C984708BDC04610B5041C2830A36A5C
:100C80005B689847231C883300221A7000280BD019
:100C9000CE235B00E358002B06D0231C9D33FF338B
:100CA000181CA18DDB68984710BDC04688300078BD
:100CB000431E9841C0B27047F0B587B001AB1A1C13
:100CC0000C1CE0CCE0C2C968021C9D32FF3270CB24
:100CD00070C29D30FF30C1600023036107B0F0BDDA
:100CE00070B5031C7533FF330A1C70CA70C3CB6820
:100CF0007530FF30C3600023036170BD10B5041C64
:100D000003685B68984700226023E25400280BD0F8
:100D10001533FF33E358002B06D0231C7533FF3304
:100D2000181CA188DB68984710BDC0466023C05CD2
:100D3000431E9841C0B2704797DF704710B584B02A
:100D400001AC2170002161706380A180069BE3806B
:100D5000079B0393101C211CFFF7EEFF00230028C4
:100D600009D0112806D0054B9C46604443425841A7
:100D7000831D00E00523181C04B010BDFCCFFFFF4D
:100D800095DF704708B5081C111C1A1CFFF7F8FF07
:100D9000031C0020002B04D0113B5A425A4106305C
:100DA000801A08BD90DF7047F0B583B0041C019134
:100DB000171C1E1C03685B689847062300283CD15B
:100DC000231C1C333A1C23CA23C3FB68A3620027DD
:100DD000E762231C4433321C23CA23C3F368236510
:100DE0006765A01D0899142206F00AFB201C30300C
:100DF0000999142206F004FB0198A0805D23E754B2
:100E0000013BE75401220433E25401210022FFF7A1
:100E1000C9FF051C002300280FD023689B68201CF5
:100E20009847112D06D0064B9D4205D00623072D6D
:100E300003D101E0052300E00423181C03B0F0BD3A
:100E400002300000F0B5474680B48CB0041C01911C
:100E5000061C2836B04602A9101CE0C8E0C1D768BD
:100E600007AA191C61C961C2DD68A36A5B684046B4
:100E70009847062300283BD102AA231C443343CAC7
:100E800043C327650027676507AA1C3343CA43C3CA
:100E9000A567E767201C2E301299142206F0B0FADD
:100EA000201C58301399142206F0AAFA0198A08544
:100EB000231C85331F70013B1F70043301221A70FD
:100EC00001210022FFF76EFF051C002300280FD030
:100ED000A36A9B6840469847112D06D0074B9D4258
:100EE00005D00623072D03D101E0052300E00423EC
:100EF000181C0CB004BC9046F0BDC0460230000087
:100F000002207047F0B54F464646C0B495B00391F5
:100F10009846046823689C4605AC251C171C4ACFDC
:100F20004AC5D2680892002509950AAA0A95157142
:100F3000273502AB99464D44002454710132AA4230
:100F4000FAD10E940B4A0D920FAA147013AD00241F
:100F500054700132AA42FAD10FAA54824346009338
:100F60000192039905AA0AABE04715B00CBC904664
:100F70009946F0BD690C020010B54B68DA0701D440
:100F80000A6803E05A1084580A68A2585B10C01817
:100F9000904710BD08B50368002B01D0081C984786
:100FA00008BDC04608B50368002B01D0081C98474F
:100FB00008BDC046024B0B60092313607047C04652
:100FC000D891020008B50A1C0368E021415A1B6A47
:100FD000984708BD10B5124B124A1A60124A1A629D
:100FE000586A002804D0046906F0E6F9201EFAD1F8
:100FF0000B4B0E4A5A619869002804D0046906F028
:10100000DBF9201EFAD1064B094A9A60D8680028FD
:1010100004D0046906F0D0F9201EFAD110BDC046F4
:10102000E0310020E0930200D09302000894020017
:101030004094020038B5051C074B08330360406834
:10104000002804D0046906F0B7F9201EFAD1281C44
:1010500006F0B2F9281C38BD2092020038B5051CF4
:10106000064B083303604068002804D0046906F08A
:10107000A3F9201EFAD1281C38BDC04620920200D8
:1010800038B5051C074B03604068002804D004698C
:1010900006F092F9201EFAD1281C06F08DF9281CC2
:1010A00038BDC0460894020038B5051C074B0360E4
:1010B0004068002804D0046906F07EF9201EFAD1A9
:1010C000281C06F079F9281C38BDC046D0930200D0
:1010D00038B5051C074B083303604068002804D06E
:1010E000046906F069F9201EFAD1281C06F064F99B
:1010F000281C38BDF891020038B5051C064B083392
:1011000003604068002804D0046906F055F9201EE9
:10111000FAD1281C38BDC046F891020038B5051C2C
:10112000074B083303604068002804D0046906F0C8
:1011300043F9201EFAD1281C06F03EF9281C38BDC0
:10114000E891020038B5051C064B0833036040687F
:10115000002804D0046906F02FF9201EFAD1281CBB
:1011600038BDC046E891020038B5051C074B08336E
:1011700003604068002804D0046906F01DF9201EB1
:10118000FAD1281C06F018F9281C38BDC8910200B5
:1011900038B5051C064B083303604068002804D0AE
:1011A000046906F009F9201EFAD1281C38BDC04692
:1011B000C891020008B5081C05F0AEFB002300280A
:1011C00003D00533112800D0023B181C08BDC046CF
:1011D00008B5081C05F09CFB002801D0032000E0A6
:1011E000002008BD08B5081C05F094FB002801D0BC
:1011F000032000E0002008BD08B5081C111C05F004
:101200007FFB002801D0032000E0002008BDC0467D
:1012100030B583B00D1C01AC23780F22934301221B
:1012200013430F221340102213432370081C06F0AF
:1012300011FA82B2201C291C05F064FB002801D0A1
:10124000032000E0002003B030BDC04630B583B0BD
:101250000D1C141C684605F06BFB032300280FD1FE
:10126000002D02D06B461B782B70002C07D0201C61
:101270006B46591C062206F0C3F8002300E0002349
:10128000181C03B030BDC04610B582B00C1E012C36
:1012900007D86B46581C111C062206F0B1F8002036
:1012A00004E08B1E0320012B0BD802386B461C7008
:1012B000694605F03FFB031C03205A1E93415B4225
:1012C000184002B010BDC04608B5081C111C05F03E
:1012D00027FB002801D0032000E0002008BDC04605
:1012E00008B5081C05F012FB031C03205A1E93418D
:1012F0005B42184008BDC04608B5081C05F004FB59
:10130000031C03205A1E93415B42184008BDC0468F
:1013100038B55824035D0125AB430135AB43035574
:101320003B233B2A00D0283B081C191C05F0F6FA89
:10133000031C03205A1E93415B42184038BDC0462F
:1013400070B588B0061C1D1C0C9C6B461A70581C8E
:10135000062206F055F8002D09D002AB2A881A8023
:101360006A885A80AA889A80EA88DA8009E002AB03
:1013700032221A8032325A8000229A8096229200BB
:10138000DA8004AB1A7802218A431A70002205928F
:10139000002C0ED0A279013911401A780120824325
:1013A0000A431A7022881A8162885A81A2889A8117
:1013B00010E004AB321C2C329279012111401A78D2
:1013C000012082430A431A70B28D1A81F28D5A812C
:1013D000328E9A81684604A902AA05F08FFA00238A
:1013E000002816D008280FD005D80733042810D0BD
:1013F00007280BD10CE0052311280AD0064B984290
:1014000006D0102802D103E0062302E00B2300E0FF
:101410000423181C08B070BD0232000010B5041C73
:1014200005F080FA0323002805D15822A35C01218E
:101430008B43A3540023181C10BDC04610B586B0C2
:10144000021C087801281AD0032806D14B88A03B3B
:101450009BB2194CA3422DD805E04B88203B9BB290
:10146000164CA3420DD88C88154B9C420BD80CE02F
:101470005822A15C01230B43A35400201AE0022050
:1014800018E0032016E0032014E0141C002300934E
:1014900001930293039305936B4618704B886A4639
:1014A00013828B885382684605F03EFA031C0320A2
:1014B000002BDDD006B010BD603F0000E03F000013
:1014C000FF3F000038B5CC7F01201F2C15D802301B
:1014D000002C12D00D1CD37F081C211C05F026FA0D
:1014E000031C0320002B08D1288C05F013FA031CE1
:1014F00003205A1E93415B42184038BD10B5041CAE
:1015000005F050F9AC23C4541C33C050074A0433CF
:10151000C25000220433C250031CC833044A5A612B
:10152000B030002102F08AF810BDC04625650200E7
:10153000790F0200A9DF7047A8DF7047A6DF704768
:10154000A5DF7047A4DF7047A0DF704738B5051CE2
:10155000054B03604068002804D0046905F02CFFA7
:10156000201EFAD1281C38BD0894020038B5051C8D
:10157000054B03604068002804D0046905F01CFF97
:10158000201EFAD1281C38BDD0930200F8B56E4B4E
:101590001B68002B00D0D4E0D8204000FEF74AFCA6
:1015A0006A4B436000238360694A02614361694A70
:1015B0000832C2610362684A08320260041C28349F
:1015C000664A083282622E228354021C2E325382D3
:1015D0004364031C443300221A710533011C50314B
:1015E00000221A7001338B42FAD1002343655C4A12
:1015F000026558228354021C58325382C366031C6E
:101600006C3300221A710533011C783100221A70E4
:1016100001338B42FAD10023C367524A8267524A90
:101620000832826280228050021C843213700132A0
:101630001370013213700132137001321370051CE4
:101640008B35071CEB372E1C6B1E00221A70291CD1
:1016500010312B1C00221A7001339942FAD1321C2E
:10166000113200231380023213801536338018356F
:10167000BD42E8D1051CEC35071C6D37FF372E1C29
:1016800000236B60AB60EB602B616B61AB61EB6166
:101690002B602B716B1D291C153100221A70013330
:1016A0009942FAD1F282337E01218B4301318B437F
:1016B00002318B4304318B4308318B4310318B4310
:1016C00020318B4333767283B2832035BD42D6D12D
:1016D00000236D32FF328350043283500432835032
:1016E0000432835004328350021C6D32FF32546145
:1016F000C222520083500432835004328350043299
:10170000835004328350021C8532FF325461CE2252
:1017100052008350021C9D32FF321371031CA2330E
:10172000FF33011CA931FF3100221A7001338B42B3
:10173000FAD1031C9D33FF331A610C4ADA60024B65
:101740001860014B1868F8BD142F0020D0930200D8
:101750000894020020920200A09102003092020040
:10176000590C0200690C020008920200490C0200A8
:1017700008B5036A1B88FF2B03D103685B69984790
:1017800005E0028A9A4202D003685B69984708BD67
:1017900008B5FFF7EDFF08BDF0B54F464646C0B4AB
:1017A00087B07C23FF33C35C002B01D100F0B2FD76
:1017B000C3235B00C35A1CB2002C03DD5B1AC32495
:1017C00064000353C4235B00C35A1CB2002C03DD26
:1017D0005B1AC42464000353C5235B00C35A1CB2C4
:1017E000002C03DD5B1AC52464000353C6235B0091
:1017F000C35A1CB2002C03DD591AC6235B00C15228
:10180000151C041CC8235B00E250837F002B00D012
:1018100094E38533FF33C35CDA070FD5F422825893
:101820000020D8498854CA225200A550943AFF3A61
:10183000934304221343C2225200A354C2235B00E9
:10184000E35C9A0710D5A2225200A2580020CD498D
:101850008854CA225200A550933AFF3A9343042277
:101860001343C2225200A354CA235B00E758E55039
:101870000A3BE35E002B05DCC2225200A15C04237C
:101880000B43A354C2235B00E35C5A0700D496E1E8
:10189000042293438132FF32A354D8239C46A444AC
:1018A00063460393604601F0D9FE002809D1F8226F
:1018B000FF32A15C01230B43A354261CE536FF36FF
:1018C00004E00022F2235B00E254002694235B0034
:1018D0009946A144484601F0C1FE002809D1F822EA
:1018E000FF32A15C01230B43A354261CE936FF36CB
:1018F00003E00022F4235B00E254039801F0AEFE03
:1019000000280ED1484601F0A9FE002809D1261C66
:10191000ED36FF360423F2225200A3540432A354BE
:101920000DE0039801F09AFE012808D1484601F025
:1019300095FE012803D10022F6235B00E254EA1B46
:10194000002E0ED07588521972801422C5235B00B8
:10195000E2523378042B00D92BE19B008A4AD358FA
:101960009F46CC235B00E558002D0CD05519874BC2
:101970009D4203D8CC235B00E55020E10022CC231C
:101980005B00E2501BE17F4BF422A158F33A5A541A
:10199000A221490061585A54F821FF31635C9343F6
:1019A0006354E06800210232012304F06BFD06E17C
:1019B000012333700023738001E17388312B00D839
:1019C000FDE0F1225200A35A591CA152E03AFF3A1D
:1019D00013405800C01840002018C930FF30211CA7
:1019E0006231033205F00CFD0122CC235B00E25092
:1019F000973BFF3B3370E2E0231CED33FF339E4205
:101A000068D1F823FF33E35C9B072FD472882C2323
:101A1000FF339A4200D8D2E0E06810210022131C64
:101A200004F030FDDF225200A35A591CA1520327B3
:101A30003B40181C062568432018A530FF30211CA8
:101A40005C312A1C05F0DCFCF1225200A35A591C1F
:101A5000A1523B40181C68432018C930FF30211C9C
:101A600068312A1C05F0CCFC3770A8E07388002B85
:101A700000D1A4E0E06800210C220B1C04F002FD60
:101A8000F1225200A35A591CA15203252B40181CC5
:101A9000062778432018C930FF30211C74313A1CC6
:101AA00005F0AEFCDF235B00E05A421CE252284006
:101AB00078432018A530FF30211C4A313A1C05F02C
:101AC0009FFCF822FF32A35C02218B43A354042322
